:100000000C942A000C9434000C9434000C943400AA
:100010000C9434000C9434000C9434000C94340090
:100020000C9434000C9434000C9434000C94340080
:100030000C9434000C9434000C9434000C94340070
:100040000C9436000C9434000C9434000C9434005E
:100050000C94340011241FBECFE5D8E0DEBFCDBF25
:100060000E9458000C9467000C9400001F920F929D
:100070000FB60F9211242F938F939F9384B195B154
:100080008A3921E0920718F083E082BB08C08C3CDB
:10009000910518F486E082BB02C085E082BB369AE7
:1000A0009F918F912F910F900FBE0F901F901895D9
:1000B00087E081BB86B1866086B9339A379A87B16B
:1000C000806C87B987B187B97894369AFFCFF89456
:0200D000FFCF60
:00000001FF
